{
  "_format": "hh-sol-artifact-1",
  "contractName": "WalletImplementation",
  "sourceName": "contracts/WalletImplementation.sol",
  "abi": [
    {
      "inputs": [],
      "name": "celoTokenBalance",
      "outputs": [
        {
          "internalType": "uint256",
          "name": "",
          "type": "uint256"
        }
      ],
      "stateMutability": "view",
      "type": "function"
    },
    {
      "inputs": [
        {
          "internalType": "address",
          "name": "_token",
          "type": "address"
        }
      ],
      "name": "erc20TokenBalance",
      "outputs": [
        {
          "internalType": "uint256",
          "name": "",
          "type": "uint256"
        }
      ],
      "stateMutability": "view",
      "type": "function"
    },
    {
      "inputs": [],
      "name": "version",
      "outputs": [
        {
          "internalType": "string",
          "name": "",
          "type": "string"
        }
      ],
      "stateMutability": "pure",
      "type": "function"
    },
    {
      "inputs": [
        {
          "internalType": "address payable",
          "name": "_to",
          "type": "address"
        },
        {
          "internalType": "uint256",
          "name": "_amount",
          "type": "uint256"
        }
      ],
      "name": "withdrawCeloToken",
      "outputs": [
        {
          "internalType": "bool",
          "name": "",
          "type": "bool"
        }
      ],
      "stateMutability": "nonpayable",
      "type": "function"
    },
    {
      "inputs": [
        {
          "internalType": "address",
          "name": "_token",
          "type": "address"
        },
        {
          "internalType": "address",
          "name": "_to",
          "type": "address"
        },
        {
          "internalType": "uint256",
          "name": "_amount",
          "type": "uint256"
        }
      ],
      "name": "withdrawErc20Token",
      "outputs": [
        {
          "internalType": "bool",
          "name": "",
          "type": "bool"
        }
      ],
      "stateMutability": "nonpayable",
      "type": "function"
    },
    {
      "inputs": [],
      "name": "xFactory",
      "outputs": [
        {
          "internalType": "address",
          "name": "",
          "type": "address"
        }
      ],
      "stateMutability": "view",
      "type": "function"
    }
  ],
  "bytecode": "0x608060405234801561001057600080fd5b50610841806100206000396000f3fe608060405234801561001057600080fd5b50600436106100625760003560e01c80632d0797341461006757806331d6efdc1461009757806354fd4d50146100b5578063623231f8146100d3578063bbdb063c146100f1578063d80759a814610121575b600080fd5b610081600480360381019061007c91906104e6565b610151565b60405161008e9190610654565b60405180910390f35b61009f61025b565b6040516100ac9190610610565b60405180910390f35b6100bd61027f565b6040516100ca919061066f565b60405180910390f35b6100db6102bc565b6040516100e891906106b1565b60405180910390f35b61010b600480360381019061010691906104aa565b6102c4565b6040516101189190610654565b60405180910390f35b61013b60048036038101906101369190610481565b610317565b60405161014891906106b1565b60405180910390f35b60008073ffffffffffffffffffffffffffffffffffffffff168473ffffffffffffffffffffffffffffffffffffffff1614156101c2576040517f08c379a00000000000000000000000000000000000000000000000000000000081526004016101b990610691565b60405180910390fd5b8373ffffffffffffffffffffffffffffffffffffffff1663a9059cbb84846040518363ffffffff1660e01b81526004016101fd92919061062b565b602060405180830381600087803b15801561021757600080fd5b505af115801561022b573d6000803e3d6000fd5b505050506040513d601f19601f8201168201806040525081019061024f9190610535565b50600190509392505050565b60008054906101000a900473ffffffffffffffffffffffffffffffffffffffff1681565b60606040518060400160405280600681526020017f76312e312e300000000000000000000000000000000000000000000000000000815250905090565b600047905090565b60008273ffffffffffffffffffffffffffffffffffffffff166108fc839081150290604051600060405180830381858888f1935050505015801561030c573d6000803e3d6000fd5b506001905092915050565b60008073ffffffffffffffffffffffffffffffffffffffff168273ffffffffffffffffffffffffffffffffffffffff161415610388576040517f08c379a000000000000000000000000000000000000000000000000000000000815260040161037f90610691565b60405180910390fd5b8173ffffffffffffffffffffffffffffffffffffffff166370a08231306040518263ffffffff1660e01b81526004016103c19190610610565b60206040518083038186803b1580156103d957600080fd5b505afa1580156103ed573d6000803e3d6000fd5b505050506040513d601f19601f82011682018060405250810190610411919061055e565b9050919050565b600081359050610427816107af565b92915050565b60008135905061043c816107c6565b92915050565b600081519050610451816107dd565b92915050565b600081359050610466816107f4565b92915050565b60008151905061047b816107f4565b92915050565b60006020828403121561049357600080fd5b60006104a184828501610418565b91505092915050565b600080604083850312156104bd57600080fd5b60006104cb8582860161042d565b92505060206104dc85828601610457565b9150509250929050565b6000806000606084860312156104fb57600080fd5b600061050986828701610418565b935050602061051a86828701610418565b925050604061052b86828701610457565b9150509250925092565b60006020828403121561054757600080fd5b600061055584828501610442565b91505092915050565b60006020828403121561057057600080fd5b600061057e8482850161046c565b91505092915050565b610590816106e8565b82525050565b61059f8161070c565b82525050565b60006105b0826106cc565b6105ba81856106d7565b93506105ca818560208601610742565b6105d381610775565b840191505092915050565b60006105eb601a836106d7565b91506105f682610786565b602082019050919050565b61060a81610738565b82525050565b60006020820190506106256000830184610587565b92915050565b60006040820190506106406000830185610587565b61064d6020830184610601565b9392505050565b60006020820190506106696000830184610596565b92915050565b6000602082019050818103600083015261068981846105a5565b905092915050565b600060208201905081810360008301526106aa816105de565b9050919050565b60006020820190506106c66000830184610601565b92915050565b600081519050919050565b600082825260208201905092915050565b60006106f382610718565b9050919050565b600061070582610718565b9050919050565b60008115159050919050565b600073ffffffffffffffffffffffffffffffffffffffff82169050919050565b6000819050919050565b60005b83811015610760578082015181840152602081019050610745565b8381111561076f576000848401525b50505050565b6000601f19601f8301169050919050565b7f57493a20496e76616c6964205f746f6b656e2061646472657373000000000000600082015250565b6107b8816106e8565b81146107c357600080fd5b50565b6107cf816106fa565b81146107da57600080fd5b50565b6107e68161070c565b81146107f157600080fd5b50565b6107fd81610738565b811461080857600080fd5b5056fea26469706673582212200c7ec6101979d7bb85ef212df0a3011728d71cf5853a03568a2c60a34119e2c264736f6c63430008040033",
  "linkReferences": {},
  "deployedLinkReferences": {}
}