{
  "_format": "hh-sol-artifact-1",
  "contractName": "WalletProxy",
  "sourceName": "contracts/WalletProxy.sol",
  "abi": [
    {
      "inputs": [
        {
          "internalType": "address",
          "name": "_xFactory",
          "type": "address"
        }
      ],
      "stateMutability": "nonpayable",
      "type": "constructor"
    },
    {
      "stateMutability": "payable",
      "type": "fallback"
    },
    {
      "inputs": [],
      "name": "xFactory",
      "outputs": [
        {
          "internalType": "address",
          "name": "",
          "type": "address"
        }
      ],
      "stateMutability": "view",
      "type": "function"
    },
    {
      "stateMutability": "payable",
      "type": "receive"
    }
  ],
  "bytecode": "0x608060405234801561001057600080fd5b5060405161070c38038061070c8339818101604052810190610032919061008d565b806000806101000a81548173ffffffffffffffffffffffffffffffffffffffff021916908373ffffffffffffffffffffffffffffffffffffffff160217905550506100ff565b600081519050610087816100e8565b92915050565b60006020828403121561009f57600080fd5b60006100ad84828501610078565b91505092915050565b60006100c1826100c8565b9050919050565b600073ffffffffffffffffffffffffffffffffffffffff82169050919050565b6100f1816100b6565b81146100fc57600080fd5b50565b6105fe8061010e6000396000f3fe6080604052600436106100225760003560e01c806331d6efdc1461003357610029565b3661002957005b61003161005e565b005b34801561003f57600080fd5b506100486100b6565b6040516100559190610499565b60405180910390f35b61009c6040518060400160405280601081526020017f5f66616c6c6261636b2063616c6c6564000000000000000000000000000000008152506100da565b6100a4610173565b6100b46100af610175565b610258565b565b60008054906101000a900473ffffffffffffffffffffffffffffffffffffffff1681565b610170816040516024016100ee91906104b4565b6040516020818303038152906040527f41304fac000000000000000000000000000000000000000000000000000000007bffffffffffffffffffffffffffffffffffffffffffffffffffffffff19166020820180517bffffffffffffffffffffffffffffffffffffffffffffffffffffffff83818316178352505050506103c7565b50565b565b60006101b56040518060400160405280601681526020017f5f696d706c656d656e746174696f6e2063616c6c6564000000000000000000008152506100da565b60008054906101000a900473ffffffffffffffffffffffffffffffffffffffff1673ffffffffffffffffffffffffffffffffffffffff166322ebb4776040518163ffffffff1660e01b815260040160206040518083038186803b15801561021b57600080fd5b505afa15801561022f573d6000803e3d6000fd5b505050506040513d601f19601f820116820180604052508101906102539190610405565b905090565b3373ffffffffffffffffffffffffffffffffffffffff1660008054906101000a900473ffffffffffffffffffffffffffffffffffffffff1673ffffffffffffffffffffffffffffffffffffffff16638da5cb5b6040518163ffffffff1660e01b815260040160206040518083038186803b1580156102d557600080fd5b505afa1580156102e9573d6000803e3d6000fd5b505050506040513d601f19601f8201168201806040525081019061030d9190610405565b73ffffffffffffffffffffffffffffffffffffffff1614610363576040517f08c379a000000000000000000000000000000000000000000000000000000000815260040161035a906104d6565b60405180910390fd5b6103a16040518060400160405280601081526020017f5f64656c65676174652063616c6c6564000000000000000000000000000000008152506100da565b3660008037600080366000845af43d6000803e80600081146103c2573d6000f35b3d6000fd5b60008151905060006a636f6e736f6c652e6c6f679050602083016000808483855afa5050505050565b6000815190506103ff816105b1565b92915050565b60006020828403121561041757600080fd5b6000610425848285016103f0565b91505092915050565b61043781610512565b82525050565b6000610448826104f6565b6104528185610501565b9350610462818560208601610544565b61046b81610577565b840191505092915050565b6000610483601283610501565b915061048e82610588565b602082019050919050565b60006020820190506104ae600083018461042e565b92915050565b600060208201905081810360008301526104ce818461043d565b905092915050565b600060208201905081810360008301526104ef81610476565b9050919050565b600081519050919050565b600082825260208201905092915050565b600061051d82610524565b9050919050565b600073ffffffffffffffffffffffffffffffffffffffff82169050919050565b60005b83811015610562578082015181840152602081019050610547565b83811115610571576000848401525b50505050565b6000601f19601f8301169050919050565b7f57503a20496e76616c69642063616c6c65720000000000000000000000000000600082015250565b6105ba81610512565b81146105c557600080fd5b5056fea2646970667358221220dc2159666bcb6888df693a0c18561d18b4b1187142b1f345dceada4639dc0e0e64736f6c63430008040033",
  "linkReferences": {},
  "deployedLinkReferences": {}
}