{
  "_format": "hh-sol-artifact-1",
  "contractName": "XChangeFactory",
  "sourceName": "contracts/XChangeFactory.sol",
  "abi": [
    {
      "anonymous": false,
      "inputs": [
        {
          "indexed": false,
          "internalType": "uint8",
          "name": "version",
          "type": "uint8"
        }
      ],
      "name": "Initialized",
      "type": "event"
    },
    {
      "anonymous": false,
      "inputs": [
        {
          "indexed": false,
          "internalType": "string",
          "name": "uuid",
          "type": "string"
        },
        {
          "indexed": false,
          "internalType": "address",
          "name": "wallet",
          "type": "address"
        }
      ],
      "name": "NewWallet",
      "type": "event"
    },
    {
      "anonymous": false,
      "inputs": [
        {
          "indexed": true,
          "internalType": "address",
          "name": "previousOwner",
          "type": "address"
        },
        {
          "indexed": true,
          "internalType": "address",
          "name": "newOwner",
          "type": "address"
        }
      ],
      "name": "OwnershipTransferred",
      "type": "event"
    },
    {
      "anonymous": false,
      "inputs": [
        {
          "indexed": false,
          "internalType": "address",
          "name": "account",
          "type": "address"
        }
      ],
      "name": "Paused",
      "type": "event"
    },
    {
      "anonymous": false,
      "inputs": [
        {
          "indexed": false,
          "internalType": "address",
          "name": "account",
          "type": "address"
        }
      ],
      "name": "Unpaused",
      "type": "event"
    },
    {
      "inputs": [
        {
          "internalType": "address",
          "name": "_walletImp",
          "type": "address"
        }
      ],
      "name": "initialize",
      "outputs": [],
      "stateMutability": "nonpayable",
      "type": "function"
    },
    {
      "inputs": [
        {
          "internalType": "string",
          "name": "uuid",
          "type": "string"
        }
      ],
      "name": "newWallet",
      "outputs": [
        {
          "internalType": "bool",
          "name": "",
          "type": "bool"
        }
      ],
      "stateMutability": "nonpayable",
      "type": "function"
    },
    {
      "inputs": [],
      "name": "owner",
      "outputs": [
        {
          "internalType": "address",
          "name": "",
          "type": "address"
        }
      ],
      "stateMutability": "view",
      "type": "function"
    },
    {
      "inputs": [],
      "name": "pause",
      "outputs": [
        {
          "internalType": "bool",
          "name": "",
          "type": "bool"
        }
      ],
      "stateMutability": "nonpayable",
      "type": "function"
    },
    {
      "inputs": [],
      "name": "paused",
      "outputs": [
        {
          "internalType": "bool",
          "name": "",
          "type": "bool"
        }
      ],
      "stateMutability": "view",
      "type": "function"
    },
    {
      "inputs": [],
      "name": "renounceOwnership",
      "outputs": [],
      "stateMutability": "nonpayable",
      "type": "function"
    },
    {
      "inputs": [
        {
          "internalType": "address",
          "name": "newOwner",
          "type": "address"
        }
      ],
      "name": "transferOwnership",
      "outputs": [],
      "stateMutability": "nonpayable",
      "type": "function"
    },
    {
      "inputs": [
        {
          "internalType": "address",
          "name": "_walletImp",
          "type": "address"
        }
      ],
      "name": "updateWalletImplementation",
      "outputs": [
        {
          "internalType": "bool",
          "name": "",
          "type": "bool"
        }
      ],
      "stateMutability": "nonpayable",
      "type": "function"
    },
    {
      "inputs": [],
      "name": "walletImp",
      "outputs": [
        {
          "internalType": "address",
          "name": "",
          "type": "address"
        }
      ],
      "stateMutability": "view",
      "type": "function"
    },
    {
      "inputs": [
        {
          "internalType": "string",
          "name": "",
          "type": "string"
        }
      ],
      "name": "wallets",
      "outputs": [
        {
          "internalType": "address",
          "name": "",
          "type": "address"
        }
      ],
      "stateMutability": "view",
      "type": "function"
    }
  ],
  "bytecode": "0x608060405234801561001057600080fd5b506118ee806100206000396000f3fe60806040523480156200001157600080fd5b5060043610620000ac5760003560e01c806372f179f8116200006f57806372f179f8146200016d5780638456cb5914620001a35780638da5cb5b14620001c5578063c4d66de814620001e7578063f2fde38b146200020757620000ac565b806301287e1114620000b157806322ebb47714620000e757806359ba0f4b14620001095780635c975abb146200013f578063715018a61462000161575b600080fd5b620000cf6004803603810190620000c9919062000b3e565b62000227565b604051620000de919062000d4e565b60405180910390f35b620000f16200035c565b60405162000100919062000d31565b60405180910390f35b62000127600480360381019062000121919062000b12565b62000382565b60405162000136919062000d4e565b60405180910390f35b62000149620003d8565b60405162000158919062000d4e565b60405180910390f35b6200016b620003ef565b005b6200018b600480360381019062000185919062000b3e565b62000407565b6040516200019a919062000d31565b60405180910390f35b620001ad62000450565b604051620001bc919062000d4e565b60405180910390f35b620001cf6200046d565b604051620001de919062000d31565b60405180910390f35b620002056004803603810190620001ff919062000b12565b62000497565b005b6200022560048036038101906200021f919062000b12565b6200062f565b005b600062000233620006ba565b6020825110156200027b576040517f08c379a0000000000000000000000000000000000000000000000000000000008152600401620002729062000dde565b60405180910390fd5b6000306040516200028c9062000a7b565b62000298919062000d31565b604051809103906000f080158015620002b5573d6000803e3d6000fd5b50905080609884604051620002cb919062000d18565b908152602001604051809103902060006101000a81548173ffffffffffffffffffffffffffffffffffffffff021916908373ffffffffffffffffffffffffffffffffffffffff1602179055507fb2bed4f527b322980cfd5aa9861f109bdae34653f120c9dc95ee130b0bc562f883826040516200034a92919062000d88565b60405180910390a16001915050919050565b609760009054906101000a900473ffffffffffffffffffffffffffffffffffffffff1681565b60006200038e620006ba565b81609760006101000a81548173ffffffffffffffffffffffffffffffffffffffff021916908373ffffffffffffffffffffffffffffffffffffffff16021790555060019050919050565b6000603360009054906101000a900460ff16905090565b620003f9620006ba565b6200040560006200073f565b565b6098818051602081018201805184825260208301602085012081835280955050505050506000915054906101000a900473ffffffffffffffffffffffffffffffffffffffff1681565b60006200045c620006ba565b6200046662000805565b6001905090565b6000606560009054906101000a900473ffffffffffffffffffffffffffffffffffffffff16905090565b60008060019054906101000a900460ff16159050808015620004c95750600160008054906101000a900460ff1660ff16105b80620004fa5750620004db306200086e565b158015620004f95750600160008054906101000a900460ff1660ff16145b5b6200053c576040517f08c379a0000000000000000000000000000000000000000000000000000000008152600401620005339062000e22565b60405180910390fd5b60016000806101000a81548160ff021916908360ff16021790555080156200057a576001600060016101000a81548160ff0219169083151502179055505b81609760006101000a81548173ffffffffffffffffffffffffffffffffffffffff021916908373ffffffffffffffffffffffffffffffffffffffff160217905550620005c562000891565b620005cf620008ef565b80156200062b5760008060016101000a81548160ff0219169083151502179055507f7f26b83ff96e1f2b6a682f133852f6798a09c465da95921460cefb3847402498600160405162000622919062000d6b565b60405180910390a15b5050565b62000639620006ba565b600073ffffffffffffffffffffffffffffffffffffffff168173ffffffffffffffffffffffffffffffffffffffff161415620006ac576040517f08c379a0000000000000000000000000000000000000000000000000000000008152600401620006a39062000dbc565b60405180910390fd5b620006b7816200073f565b50565b620006c46200094d565b73ffffffffffffffffffffffffffffffffffffffff16620006e46200046d565b73ffffffffffffffffffffffffffffffffffffffff16146200073d576040517f08c379a0000000000000000000000000000000000000000000000000000000008152600401620007349062000e44565b60405180910390fd5b565b6000606560009054906101000a900473ffffffffffffffffffffffffffffffffffffffff16905081606560006101000a81548173ffffffffffffffffffffffffffffffffffffffff021916908373ffffffffffffffffffffffffffffffffffffffff1602179055508173ffffffffffffffffffffffffffffffffffffffff168173ffffffffffffffffffffffffffffffffffffffff167f8be0079c531659141344cd1fd0a4f28419497f9722a3daafe3b4186f6b6457e060405160405180910390a35050565b6200080f62000955565b6001603360006101000a81548160ff0219169083151502179055507f62e78cea01bee320cd4e420270b5ea74000d11b0c9f74754ebdbfc544b05a258620008556200094d565b60405162000864919062000d31565b60405180910390a1565b6000808273ffffffffffffffffffffffffffffffffffffffff163b119050919050565b600060019054906101000a900460ff16620008e3576040517f08c379a0000000000000000000000000000000000000000000000000000000008152600401620008da9062000e66565b60405180910390fd5b620008ed620009a4565b565b600060019054906101000a900460ff1662000941576040517f08c379a0000000000000000000000000000000000000000000000000000000008152600401620009389062000e66565b60405180910390fd5b6200094b62000a0c565b565b600033905090565b6200095f620003d8565b15620009a2576040517f08c379a0000000000000000000000000000000000000000000000000000000008152600401620009999062000e00565b60405180910390fd5b565b600060019054906101000a900460ff16620009f6576040517f08c379a0000000000000000000000000000000000000000000000000000000008152600401620009ed9062000e66565b60405180910390fd5b62000a0a62000a046200094d565b6200073f565b565b600060019054906101000a900460ff1662000a5e576040517f08c379a000000000000000000000000000000000000000000000000000000000815260040162000a559062000e66565b60405180910390fd5b6000603360006101000a81548160ff021916908315150217905550565b61070c80620011ad83390190565b600062000aa062000a9a8462000eb1565b62000e88565b90508281526020810184848401111562000ab957600080fd5b62000ac684828562000f6f565b509392505050565b60008135905062000adf8162001192565b92915050565b600082601f83011262000af757600080fd5b813562000b0984826020860162000a89565b91505092915050565b60006020828403121562000b2557600080fd5b600062000b358482850162000ace565b91505092915050565b60006020828403121562000b5157600080fd5b600082013567ffffffffffffffff81111562000b6c57600080fd5b62000b7a8482850162000ae5565b91505092915050565b62000b8e8162000f0e565b82525050565b62000b9f8162000f22565b82525050565b62000bb08162000f5b565b82525050565b600062000bc38262000ee7565b62000bcf818562000ef2565b935062000be181856020860162000f7e565b62000bec8162001019565b840191505092915050565b600062000c048262000ee7565b62000c10818562000f03565b935062000c2281856020860162000f7e565b80840191505092915050565b600062000c3d60268362000ef2565b915062000c4a826200102a565b604082019050919050565b600062000c6460108362000ef2565b915062000c718262001079565b602082019050919050565b600062000c8b60108362000ef2565b915062000c9882620010a2565b602082019050919050565b600062000cb2602e8362000ef2565b915062000cbf82620010cb565b604082019050919050565b600062000cd960208362000ef2565b915062000ce6826200111a565b602082019050919050565b600062000d00602b8362000ef2565b915062000d0d8262001143565b604082019050919050565b600062000d26828462000bf7565b915081905092915050565b600060208201905062000d48600083018462000b83565b92915050565b600060208201905062000d65600083018462000b94565b92915050565b600060208201905062000d82600083018462000ba5565b92915050565b6000604082019050818103600083015262000da4818562000bb6565b905062000db5602083018462000b83565b9392505050565b6000602082019050818103600083015262000dd78162000c2e565b9050919050565b6000602082019050818103600083015262000df98162000c55565b9050919050565b6000602082019050818103600083015262000e1b8162000c7c565b9050919050565b6000602082019050818103600083015262000e3d8162000ca3565b9050919050565b6000602082019050818103600083015262000e5f8162000cca565b9050919050565b6000602082019050818103600083015262000e818162000cf1565b9050919050565b600062000e9462000ea7565b905062000ea2828262000fb4565b919050565b6000604051905090565b600067ffffffffffffffff82111562000ecf5762000ece62000fea565b5b62000eda8262001019565b9050602081019050919050565b600081519050919050565b600082825260208201905092915050565b600081905092915050565b600062000f1b8262000f2e565b9050919050565b60008115159050919050565b600073ffffffffffffffffffffffffffffffffffffffff82169050919050565b600060ff82169050919050565b600062000f688262000f4e565b9050919050565b82818337600083830152505050565b60005b8381101562000f9e57808201518184015260208101905062000f81565b8381111562000fae576000848401525b50505050565b62000fbf8262001019565b810181811067ffffffffffffffff8211171562000fe15762000fe062000fea565b5b80604052505050565b7f4e487b7100000000000000000000000000000000000000000000000000000000600052604160045260246000fd5b6000601f19601f8301169050919050565b7f4f776e61626c653a206e6577206f776e657220697320746865207a65726f206160008201527f6464726573730000000000000000000000000000000000000000000000000000602082015250565b7f58463a20496e76616c6964207575696400000000000000000000000000000000600082015250565b7f5061757361626c653a2070617573656400000000000000000000000000000000600082015250565b7f496e697469616c697a61626c653a20636f6e747261637420697320616c72656160008201527f647920696e697469616c697a6564000000000000000000000000000000000000602082015250565b7f4f776e61626c653a2063616c6c6572206973206e6f7420746865206f776e6572600082015250565b7f496e697469616c697a61626c653a20636f6e7472616374206973206e6f74206960008201527f6e697469616c697a696e67000000000000000000000000000000000000000000602082015250565b6200119d8162000f0e565b8114620011a957600080fd5b5056fe608060405234801561001057600080fd5b5060405161070c38038061070c8339818101604052810190610032919061008d565b806000806101000a81548173ffffffffffffffffffffffffffffffffffffffff021916908373ffffffffffffffffffffffffffffffffffffffff160217905550506100ff565b600081519050610087816100e8565b92915050565b60006020828403121561009f57600080fd5b60006100ad84828501610078565b91505092915050565b60006100c1826100c8565b9050919050565b600073ffffffffffffffffffffffffffffffffffffffff82169050919050565b6100f1816100b6565b81146100fc57600080fd5b50565b6105fe8061010e6000396000f3fe6080604052600436106100225760003560e01c806331d6efdc1461003357610029565b3661002957005b61003161005e565b005b34801561003f57600080fd5b506100486100b6565b6040516100559190610499565b60405180910390f35b61009c6040518060400160405280601081526020017f5f66616c6c6261636b2063616c6c6564000000000000000000000000000000008152506100da565b6100a4610173565b6100b46100af610175565b610258565b565b60008054906101000a900473ffffffffffffffffffffffffffffffffffffffff1681565b610170816040516024016100ee91906104b4565b6040516020818303038152906040527f41304fac000000000000000000000000000000000000000000000000000000007bffffffffffffffffffffffffffffffffffffffffffffffffffffffff19166020820180517bffffffffffffffffffffffffffffffffffffffffffffffffffffffff83818316178352505050506103c7565b50565b565b60006101b56040518060400160405280601681526020017f5f696d706c656d656e746174696f6e2063616c6c6564000000000000000000008152506100da565b60008054906101000a900473ffffffffffffffffffffffffffffffffffffffff1673ffffffffffffffffffffffffffffffffffffffff166322ebb4776040518163ffffffff1660e01b815260040160206040518083038186803b15801561021b57600080fd5b505afa15801561022f573d6000803e3d6000fd5b505050506040513d601f19601f820116820180604052508101906102539190610405565b905090565b3373ffffffffffffffffffffffffffffffffffffffff1660008054906101000a900473ffffffffffffffffffffffffffffffffffffffff1673ffffffffffffffffffffffffffffffffffffffff16638da5cb5b6040518163ffffffff1660e01b815260040160206040518083038186803b1580156102d557600080fd5b505afa1580156102e9573d6000803e3d6000fd5b505050506040513d601f19601f8201168201806040525081019061030d9190610405565b73ffffffffffffffffffffffffffffffffffffffff1614610363576040517f08c379a000000000000000000000000000000000000000000000000000000000815260040161035a906104d6565b60405180910390fd5b6103a16040518060400160405280601081526020017f5f64656c65676174652063616c6c6564000000000000000000000000000000008152506100da565b3660008037600080366000845af43d6000803e80600081146103c2573d6000f35b3d6000fd5b60008151905060006a636f6e736f6c652e6c6f679050602083016000808483855afa5050505050565b6000815190506103ff816105b1565b92915050565b60006020828403121561041757600080fd5b6000610425848285016103f0565b91505092915050565b61043781610512565b82525050565b6000610448826104f6565b6104528185610501565b9350610462818560208601610544565b61046b81610577565b840191505092915050565b6000610483601283610501565b915061048e82610588565b602082019050919050565b60006020820190506104ae600083018461042e565b92915050565b600060208201905081810360008301526104ce818461043d565b905092915050565b600060208201905081810360008301526104ef81610476565b9050919050565b600081519050919050565b600082825260208201905092915050565b600061051d82610524565b9050919050565b600073ffffffffffffffffffffffffffffffffffffffff82169050919050565b60005b83811015610562578082015181840152602081019050610547565b83811115610571576000848401525b50505050565b6000601f19601f8301169050919050565b7f57503a20496e76616c69642063616c6c65720000000000000000000000000000600082015250565b6105ba81610512565b81146105c557600080fd5b5056fea2646970667358221220dc2159666bcb6888df693a0c18561d18b4b1187142b1f345dceada4639dc0e0e64736f6c63430008040033a2646970667358221220f5db4193cc9b4087f6aed266ef1bc381efcbcdbb696843235903efd37267105764736f6c63430008040033",
  "linkReferences": {},
  "deployedLinkReferences": {}
}